{
  "_format": "hh-sol-artifact-1",
  "contractName": "Blog",
  "sourceName": "contracts/Blog.sol",
  "abi": [
    {
      "inputs": [
        {
          "internalType": "string",
          "name": "_name",
          "type": "string"
        }
      ],
      "stateMutability": "nonpayable",
      "type": "constructor"
    },
    {
      "anonymous": false,
      "inputs": [
        {
          "indexed": false,
          "internalType": "uint256",
          "name": "id",
          "type": "uint256"
        },
        {
          "indexed": false,
          "internalType": "string",
          "name": "title",
          "type": "string"
        },
        {
          "indexed": false,
          "internalType": "string",
          "name": "hash",
          "type": "string"
        }
      ],
      "name": "PostCreated",
      "type": "event"
    },
    {
      "anonymous": false,
      "inputs": [
        {
          "indexed": false,
          "internalType": "uint256",
          "name": "id",
          "type": "uint256"
        },
        {
          "indexed": false,
          "internalType": "string",
          "name": "title",
          "type": "string"
        },
        {
          "indexed": false,
          "internalType": "string",
          "name": "hash",
          "type": "string"
        },
        {
          "indexed": false,
          "internalType": "bool",
          "name": "published",
          "type": "bool"
        }
      ],
      "name": "PostUpdated",
      "type": "event"
    },
    {
      "inputs": [
        {
          "internalType": "string",
          "name": "title",
          "type": "string"
        },
        {
          "internalType": "string",
          "name": "hash",
          "type": "string"
        }
      ],
      "name": "createPost",
      "outputs": [],
      "stateMutability": "nonpayable",
      "type": "function"
    },
    {
      "inputs": [
        {
          "internalType": "string",
          "name": "hash",
          "type": "string"
        }
      ],
      "name": "fetchPost",
      "outputs": [
        {
          "components": [
            {
              "internalType": "uint256",
              "name": "id",
              "type": "uint256"
            },
            {
              "internalType": "string",
              "name": "title",
              "type": "string"
            },
            {
              "internalType": "string",
              "name": "content",
              "type": "string"
            },
            {
              "internalType": "bool",
              "name": "published",
              "type": "bool"
            }
          ],
          "internalType": "struct Blog.Post",
          "name": "",
          "type": "tuple"
        }
      ],
      "stateMutability": "view",
      "type": "function"
    },
    {
      "inputs": [],
      "name": "fetchPosts",
      "outputs": [
        {
          "components": [
            {
              "internalType": "uint256",
              "name": "id",
              "type": "uint256"
            },
            {
              "internalType": "string",
              "name": "title",
              "type": "string"
            },
            {
              "internalType": "string",
              "name": "content",
              "type": "string"
            },
            {
              "internalType": "bool",
              "name": "published",
              "type": "bool"
            }
          ],
          "internalType": "struct Blog.Post[]",
          "name": "",
          "type": "tuple[]"
        }
      ],
      "stateMutability": "view",
      "type": "function"
    },
    {
      "inputs": [],
      "name": "name",
      "outputs": [
        {
          "internalType": "string",
          "name": "",
          "type": "string"
        }
      ],
      "stateMutability": "view",
      "type": "function"
    },
    {
      "inputs": [],
      "name": "owner",
      "outputs": [
        {
          "internalType": "address",
          "name": "",
          "type": "address"
        }
      ],
      "stateMutability": "view",
      "type": "function"
    },
    {
      "inputs": [
        {
          "internalType": "address",
          "name": "newOwner",
          "type": "address"
        }
      ],
      "name": "transferOwnership",
      "outputs": [],
      "stateMutability": "nonpayable",
      "type": "function"
    },
    {
      "inputs": [
        {
          "internalType": "string",
          "name": "_name",
          "type": "string"
        }
      ],
      "name": "updateName",
      "outputs": [],
      "stateMutability": "nonpayable",
      "type": "function"
    },
    {
      "inputs": [
        {
          "internalType": "uint256",
          "name": "postId",
          "type": "uint256"
        },
        {
          "internalType": "string",
          "name": "title",
          "type": "string"
        },
        {
          "internalType": "string",
          "name": "hash",
          "type": "string"
        },
        {
          "internalType": "bool",
          "name": "published",
          "type": "bool"
        }
      ],
      "name": "updatePost",
      "outputs": [],
      "stateMutability": "nonpayable",
      "type": "function"
    }
  ],
  "bytecode": "0x60806040523480156200001157600080fd5b5060405162001f8238038062001f8283398181016040528101906200003791906200033f565b620000836040518060400160405280601981526020017f4465706c6f79696e6720426c6f672077697468206e616d653a0000000000000081525082620000dd60201b62000a241760201c565b8060009081620000949190620005db565b5033600160006101000a81548173ffffffffffffffffffffffffffffffffffffffff021916908373ffffffffffffffffffffffffffffffffffffffff160217905550506200074f565b6200017f8282604051602401620000f692919062000714565b6040516020818303038152906040527f4b5c4277000000000000000000000000000000000000000000000000000000007bffffffffffffffffffffffffffffffffffffffffffffffffffffffff19166020820180517bffffffffffffffffffffffffffffffffffffffffffffffffffffffff83818316178352505050506200018360201b60201c565b5050565b60008151905060006a636f6e736f6c652e6c6f679050602083016000808483855afa5050505050565b6000604051905090565b600080fd5b600080fd5b600080fd5b600080fd5b6000601f19601f8301169050919050565b7f4e487b7100000000000000000000000000000000000000000000000000000000600052604160045260246000fd5b6200021582620001ca565b810181811067ffffffffffffffff82111715620002375762000236620001db565b5b80604052505050565b60006200024c620001ac565b90506200025a82826200020a565b919050565b600067ffffffffffffffff8211156200027d576200027c620001db565b5b6200028882620001ca565b9050602081019050919050565b60005b83811015620002b557808201518184015260208101905062000298565b60008484015250505050565b6000620002d8620002d2846200025f565b62000240565b905082815260208101848484011115620002f757620002f6620001c5565b5b6200030484828562000295565b509392505050565b600082601f830112620003245762000323620001c0565b5b815162000336848260208601620002c1565b91505092915050565b600060208284031215620003585762000357620001b6565b5b600082015167ffffffffffffffff811115620003795762000378620001bb565b5b62000387848285016200030c565b91505092915050565b600081519050919050565b7f4e487b7100000000000000000000000000000000000000000000000000000000600052602260045260246000fd5b60006002820490506001821680620003e357607f821691505b602082108103620003f957620003f86200039b565b5b50919050565b60008190508160005260206000209050919050565b60006020601f8301049050919050565b600082821b905092915050565b600060088302620004637fffffffffffffffffffffffffffffffffffffffffffffffffffffffffffffffff8262000424565b6200046f868362000424565b95508019841693508086168417925050509392505050565b6000819050919050565b6000819050919050565b6000620004bc620004b6620004b08462000487565b62000491565b62000487565b9050919050565b6000819050919050565b620004d8836200049b565b620004f0620004e782620004c3565b84845462000431565b825550505050565b600090565b62000507620004f8565b62000514818484620004cd565b505050565b5b818110156200053c5762000530600082620004fd565b6001810190506200051a565b5050565b601f8211156200058b576200055581620003ff565b620005608462000414565b8101602085101562000570578190505b620005886200057f8562000414565b83018262000519565b50505b505050565b600082821c905092915050565b6000620005b06000198460080262000590565b1980831691505092915050565b6000620005cb83836200059d565b9150826002028217905092915050565b620005e68262000390565b67ffffffffffffffff811115620006025762000601620001db565b5b6200060e8254620003ca565b6200061b82828562000540565b600060209050601f8311600181146200065357600084156200063e578287015190505b6200064a8582620005bd565b865550620006ba565b601f1984166200066386620003ff565b60005b828110156200068d5784890151825560018201915060208501945060208101905062000666565b86831015620006ad5784890151620006a9601f8916826200059d565b8355505b6001600288020188555050505b505050505050565b600082825260208201905092915050565b6000620006e08262000390565b620006ec8185620006c2565b9350620006fe81856020860162000295565b6200070981620001ca565b840191505092915050565b60006040820190508181036000830152620007308185620006d3565b90508181036020830152620007468184620006d3565b90509392505050565b611823806200075f6000396000f3fe608060405234801561001057600080fd5b50600436106100885760003560e01c80638da5cb5b1161005b5780638da5cb5b14610113578063abaddd7f14610131578063cd349fe91461014f578063f2fde38b1461016b57610088565b806306fdde031461008d578063392338f5146100ab57806344828659146100c757806384da92a7146100f7575b600080fd5b610095610187565b6040516100a29190610bc7565b60405180910390f35b6100c560048036038101906100c09190610d32565b610215565b005b6100e160048036038101906100dc9190610daa565b6103ac565b6040516100ee9190610edb565b60405180910390f35b610111600480360381019061010c9190610daa565b61052d565b005b61011b610540565b6040516101289190610f3e565b60405180910390f35b610139610566565b6040516101469190611085565b60405180910390f35b610169600480360381019061016491906110ff565b610792565b005b610185600480360381019061018091906111ca565b610986565b005b6000805461019490611226565b80601f01602080910402602001604051908101604052809291908181526020018280546101c090611226565b801561020d5780601f106101e25761010080835404028352916020019161020d565b820191906000526020600020905b8154815290600101906020018083116101f057829003601f168201915b505050505081565b600160009054906101000a900473ffffffffffffffffffffffffffffffffffffffff1673ffffffffffffffffffffffffffffffffffffffff163373ffffffffffffffffffffffffffffffffffffffff161461026f57600080fd5b6102796002610ac0565b60006102856002610ad6565b90506000600360008381526020019081526020016000209050818160000181905550838160010190816102b89190611403565b5060018160030160006101000a81548160ff021916908315150217905550828160020190816102e79190611403565b50806004846040516102f99190611511565b90815260200160405180910390206000820154816000015560018201816001019081610325919061153e565b506002820181600201908161033a919061153e565b506003820160009054906101000a900460ff168160030160006101000a81548160ff0219169083151502179055509050507fe6851f0b99a9d86e5d68a97f65218980851216ce297f789c6b6b7e82ca1d90c882858560405161039e93929190611635565b60405180910390a150505050565b6103b4610b0d565b6004826040516103c49190611511565b9081526020016040518091039020604051806080016040529081600082015481526020016001820180546103f790611226565b80601f016020809104026020016040519081016040528092919081815260200182805461042390611226565b80156104705780601f1061044557610100808354040283529160200191610470565b820191906000526020600020905b81548152906001019060200180831161045357829003601f168201915b5050505050815260200160028201805461048990611226565b80601f01602080910402602001604051908101604052809291908181526020018280546104b590611226565b80156105025780601f106104d757610100808354040283529160200191610502565b820191906000526020600020905b8154815290600101906020018083116104e557829003601f168201915b505050505081526020016003820160009054906101000a900460ff1615151515815250509050919050565b806000908161053c9190611403565b5050565b600160009054906101000a900473ffffffffffffffffffffffffffffffffffffffff1681565b606060006105746002610ad6565b905060008167ffffffffffffffff81111561059257610591610c07565b5b6040519080825280602002602001820160405280156105cb57816020015b6105b8610b0d565b8152602001906001900390816105b05790505b50905060005b828110156107895760006001826105e891906116a9565b90506000600360008381526020019081526020016000209050806040518060800160405290816000820154815260200160018201805461062790611226565b80601f016020809104026020016040519081016040528092919081815260200182805461065390611226565b80156106a05780601f10610675576101008083540402835291602001916106a0565b820191906000526020600020905b81548152906001019060200180831161068357829003601f168201915b505050505081526020016002820180546106b990611226565b80601f01602080910402602001604051908101604052809291908181526020018280546106e590611226565b80156107325780601f1061070757610100808354040283529160200191610732565b820191906000526020600020905b81548152906001019060200180831161071557829003601f168201915b505050505081526020016003820160009054906101000a900460ff161515151581525050848481518110610769576107686116dd565b5b6020026020010181905250505080806107819061170c565b9150506105d1565b50809250505090565b600160009054906101000a900473ffffffffffffffffffffffffffffffffffffffff1673ffffffffffffffffffffffffffffffffffffffff163373ffffffffffffffffffffffffffffffffffffffff16146107ec57600080fd5b6000600360008681526020019081526020016000209050838160010190816108149190611403565b50818160030160006101000a81548160ff021916908315150217905550828160020190816108429190611403565b5080600360008781526020019081526020016000206000820154816000015560018201816001019081610875919061153e565b506002820181600201908161088a919061153e565b506003820160009054906101000a900460ff168160030160006101000a81548160ff021916908315150217905550905050806004846040516108cc9190611511565b908152602001604051809103902060008201548160000155600182018160010190816108f8919061153e565b506002820181600201908161090d919061153e565b506003820160009054906101000a900460ff168160030160006101000a81548160ff0219169083151502179055509050507f9f8eb93fc073102bbd3072664634ab200707a4f11d94aace9cc8d0e4d019eff581600001548585856040516109779493929190611763565b60405180910390a15050505050565b600160009054906101000a900473ffffffffffffffffffffffffffffffffffffffff1673ffffffffffffffffffffffffffffffffffffffff163373ffffffffffffffffffffffffffffffffffffffff16146109e057600080fd5b80600160006101000a81548173ffffffffffffffffffffffffffffffffffffffff021916908373ffffffffffffffffffffffffffffffffffffffff16021790555050565b610abc8282604051602401610a3a9291906117b6565b6040516020818303038152906040527f4b5c4277000000000000000000000000000000000000000000000000000000007bffffffffffffffffffffffffffffffffffffffffffffffffffffffff19166020820180517bffffffffffffffffffffffffffffffffffffffffffffffffffffffff8381831617835250505050610ae4565b5050565b6001816000016000828254019250508190555050565b600081600001549050919050565b60008151905060006a636f6e736f6c652e6c6f679050602083016000808483855afa5050505050565b60405180608001604052806000815260200160608152602001606081526020016000151581525090565b600081519050919050565b600082825260208201905092915050565b60005b83811015610b71578082015181840152602081019050610b56565b60008484015250505050565b6000601f19601f8301169050919050565b6000610b9982610b37565b610ba38185610b42565b9350610bb3818560208601610b53565b610bbc81610b7d565b840191505092915050565b60006020820190508181036000830152610be18184610b8e565b905092915050565b6000604051905090565b600080fd5b600080fd5b600080fd5b600080fd5b7f4e487b7100000000000000000000000000000000000000000000000000000000600052604160045260246000fd5b610c3f82610b7d565b810181811067ffffffffffffffff82111715610c5e57610c5d610c07565b5b80604052505050565b6000610c71610be9565b9050610c7d8282610c36565b919050565b600067ffffffffffffffff821115610c9d57610c9c610c07565b5b610ca682610b7d565b9050602081019050919050565b82818337600083830152505050565b6000610cd5610cd084610c82565b610c67565b905082815260208101848484011115610cf157610cf0610c02565b5b610cfc848285610cb3565b509392505050565b600082601f830112610d1957610d18610bfd565b5b8135610d29848260208601610cc2565b91505092915050565b60008060408385031215610d4957610d48610bf3565b5b600083013567ffffffffffffffff811115610d6757610d66610bf8565b5b610d7385828601610d04565b925050602083013567ffffffffffffffff811115610d9457610d93610bf8565b5b610da085828601610d04565b9150509250929050565b600060208284031215610dc057610dbf610bf3565b5b600082013567ffffffffffffffff811115610dde57610ddd610bf8565b5b610dea84828501610d04565b91505092915050565b6000819050919050565b610e0681610df3565b82525050565b600082825260208201905092915050565b6000610e2882610b37565b610e328185610e0c565b9350610e42818560208601610b53565b610e4b81610b7d565b840191505092915050565b60008115159050919050565b610e6b81610e56565b82525050565b6000608083016000830151610e896000860182610dfd565b5060208301518482036020860152610ea18282610e1d565b91505060408301518482036040860152610ebb8282610e1d565b9150506060830151610ed06060860182610e62565b508091505092915050565b60006020820190508181036000830152610ef58184610e71565b905092915050565b600073ffffffffffffffffffffffffffffffffffffffff82169050919050565b6000610f2882610efd565b9050919050565b610f3881610f1d565b82525050565b6000602082019050610f536000830184610f2f565b92915050565b600081519050919050565b600082825260208201905092915050565b6000819050602082019050919050565b6000608083016000830151610f9d6000860182610dfd565b5060208301518482036020860152610fb58282610e1d565b91505060408301518482036040860152610fcf8282610e1d565b9150506060830151610fe46060860182610e62565b508091505092915050565b6000610ffb8383610f85565b905092915050565b6000602082019050919050565b600061101b82610f59565b6110258185610f64565b93508360208202850161103785610f75565b8060005b8581101561107357848403895281516110548582610fef565b945061105f83611003565b925060208a0199505060018101905061103b565b50829750879550505050505092915050565b6000602082019050818103600083015261109f8184611010565b905092915050565b6110b081610df3565b81146110bb57600080fd5b50565b6000813590506110cd816110a7565b92915050565b6110dc81610e56565b81146110e757600080fd5b50565b6000813590506110f9816110d3565b92915050565b6000806000806080858703121561111957611118610bf3565b5b6000611127878288016110be565b945050602085013567ffffffffffffffff81111561114857611147610bf8565b5b61115487828801610d04565b935050604085013567ffffffffffffffff81111561117557611174610bf8565b5b61118187828801610d04565b9250506060611192878288016110ea565b91505092959194509250565b6111a781610f1d565b81146111b257600080fd5b50565b6000813590506111c48161119e565b92915050565b6000602082840312156111e0576111df610bf3565b5b60006111ee848285016111b5565b91505092915050565b7f4e487b7100000000000000000000000000000000000000000000000000000000600052602260045260246000fd5b6000600282049050600182168061123e57607f821691505b602082108103611251576112506111f7565b5b50919050565b60008190508160005260206000209050919050565b60006020601f8301049050919050565b600082821b905092915050565b6000600883026112b97fffffffffffffffffffffffffffffffffffffffffffffffffffffffffffffffff8261127c565b6112c3868361127c565b95508019841693508086168417925050509392505050565b6000819050919050565b60006113006112fb6112f684610df3565b6112db565b610df3565b9050919050565b6000819050919050565b61131a836112e5565b61132e61132682611307565b848454611289565b825550505050565b600090565b611343611336565b61134e818484611311565b505050565b5b818110156113725761136760008261133b565b600181019050611354565b5050565b601f8211156113b75761138881611257565b6113918461126c565b810160208510156113a0578190505b6113b46113ac8561126c565b830182611353565b50505b505050565b600082821c905092915050565b60006113da600019846008026113bc565b1980831691505092915050565b60006113f383836113c9565b9150826002028217905092915050565b61140c82610b37565b67ffffffffffffffff81111561142557611424610c07565b5b61142f8254611226565b61143a828285611376565b600060209050601f83116001811461146d576000841561145b578287015190505b61146585826113e7565b8655506114cd565b601f19841661147b86611257565b60005b828110156114a35784890151825560018201915060208501945060208101905061147e565b868310156114c057848901516114bc601f8916826113c9565b8355505b6001600288020188555050505b505050505050565b600081905092915050565b60006114eb82610b37565b6114f581856114d5565b9350611505818560208601610b53565b80840191505092915050565b600061151d82846114e0565b915081905092915050565b60008154905061153781611226565b9050919050565b81810361154c575050611624565b61155582611528565b67ffffffffffffffff81111561156e5761156d610c07565b5b6115788254611226565b611583828285611376565b6000601f8311600181146115b257600084156115a0578287015490505b6115aa85826113e7565b86555061161d565b601f1984166115c087611257565b96506115cb86611257565b60005b828110156115f3578489015482556001820191506001850194506020810190506115ce565b86831015611610578489015461160c601f8916826113c9565b8355505b6001600288020188555050505b5050505050505b565b61162f81610df3565b82525050565b600060608201905061164a6000830186611626565b818103602083015261165c8185610b8e565b905081810360408301526116708184610b8e565b9050949350505050565b7f4e487b7100000000000000000000000000000000000000000000000000000000600052601160045260246000fd5b60006116b482610df3565b91506116bf83610df3565b92508282019050808211156116d7576116d661167a565b5b92915050565b7f4e487b7100000000000000000000000000000000000000000000000000000000600052603260045260246000fd5b600061171782610df3565b91507fffffffffffffffffffffffffffffffffffffffffffffffffffffffffffffffff82036117495761174861167a565b5b600182019050919050565b61175d81610e56565b82525050565b60006080820190506117786000830187611626565b818103602083015261178a8186610b8e565b9050818103604083015261179e8185610b8e565b90506117ad6060830184611754565b95945050505050565b600060408201905081810360008301526117d08185610b8e565b905081810360208301526117e48184610b8e565b9050939250505056fea2646970667358221220dc281f9e64c795d371ae3aa4831c8c065b05c45cc6eaf0c92e1a66b7be78429f64736f6c63430008110033",
  "linkReferences": {},
  "deployedLinkReferences": {}
}